{
  "_format": "hh-sol-artifact-1",
  "contractName": "NFTGame",
  "sourceName": "contracts/NFTGame.sol",
  "abi": [
    {
      "inputs": [
        {
          "internalType": "string[]",
          "name": "characterNames",
          "type": "string[]"
        },
        {
          "internalType": "string[]",
          "name": "characterImageURIs",
          "type": "string[]"
        },
        {
          "internalType": "uint256[]",
          "name": "characterHp",
          "type": "uint256[]"
        },
        {
          "internalType": "uint256[]",
          "name": "characterAttackDmg",
          "type": "uint256[]"
        },
        {
          "internalType": "string",
          "name": "bossName",
          "type": "string"
        },
        {
          "internalType": "string",
          "name": "bossImageURI",
          "type": "string"
        },
        {
          "internalType": "uint256",
          "name": "bossHp",
          "type": "uint256"
        },
        {
          "internalType": "uint256",
          "name": "bossAttackDamage",
          "type": "uint256"
        }
      ],
      "stateMutability": "nonpayable",
      "type": "constructor"
    },
    {
      "anonymous": false,
      "inputs": [
        {
          "indexed": true,
          "internalType": "address",
          "name": "owner",
          "type": "address"
        },
        {
          "indexed": true,
          "internalType": "address",
          "name": "approved",
          "type": "address"
        },
        {
          "indexed": true,
          "internalType": "uint256",
          "name": "tokenId",
          "type": "uint256"
        }
      ],
      "name": "Approval",
      "type": "event"
    },
    {
      "anonymous": false,
      "inputs": [
        {
          "indexed": true,
          "internalType": "address",
          "name": "owner",
          "type": "address"
        },
        {
          "indexed": true,
          "internalType": "address",
          "name": "operator",
          "type": "address"
        },
        {
          "indexed": false,
          "internalType": "bool",
          "name": "approved",
          "type": "bool"
        }
      ],
      "name": "ApprovalForAll",
      "type": "event"
    },
    {
      "anonymous": false,
      "inputs": [
        {
          "indexed": false,
          "internalType": "address",
          "name": "sender",
          "type": "address"
        },
        {
          "indexed": false,
          "internalType": "uint256",
          "name": "newBossHp",
          "type": "uint256"
        },
        {
          "indexed": false,
          "internalType": "uint256",
          "name": "newPlayerHp",
          "type": "uint256"
        }
      ],
      "name": "AttackComplete",
      "type": "event"
    },
    {
      "anonymous": false,
      "inputs": [
        {
          "indexed": false,
          "internalType": "address",
          "name": "sender",
          "type": "address"
        },
        {
          "indexed": false,
          "internalType": "uint256",
          "name": "tokenId",
          "type": "uint256"
        },
        {
          "indexed": false,
          "internalType": "uint256",
          "name": "characterIndex",
          "type": "uint256"
        }
      ],
      "name": "CharacterNFTMinted",
      "type": "event"
    },
    {
      "anonymous": false,
      "inputs": [
        {
          "indexed": true,
          "internalType": "address",
          "name": "from",
          "type": "address"
        },
        {
          "indexed": true,
          "internalType": "address",
          "name": "to",
          "type": "address"
        },
        {
          "indexed": true,
          "internalType": "uint256",
          "name": "tokenId",
          "type": "uint256"
        }
      ],
      "name": "Transfer",
      "type": "event"
    },
    {
      "inputs": [
        {
          "internalType": "address",
          "name": "to",
          "type": "address"
        },
        {
          "internalType": "uint256",
          "name": "tokenId",
          "type": "uint256"
        }
      ],
      "name": "approve",
      "outputs": [],
      "stateMutability": "nonpayable",
      "type": "function"
    },
    {
      "inputs": [],
      "name": "attackBoss",
      "outputs": [],
      "stateMutability": "nonpayable",
      "type": "function"
    },
    {
      "inputs": [
        {
          "internalType": "address",
          "name": "owner",
          "type": "address"
        }
      ],
      "name": "balanceOf",
      "outputs": [
        {
          "internalType": "uint256",
          "name": "",
          "type": "uint256"
        }
      ],
      "stateMutability": "view",
      "type": "function"
    },
    {
      "inputs": [],
      "name": "bigBoss",
      "outputs": [
        {
          "internalType": "string",
          "name": "name",
          "type": "string"
        },
        {
          "internalType": "string",
          "name": "imageURI",
          "type": "string"
        },
        {
          "internalType": "uint256",
          "name": "hp",
          "type": "uint256"
        },
        {
          "internalType": "uint256",
          "name": "maxHp",
          "type": "uint256"
        },
        {
          "internalType": "uint256",
          "name": "attackDamage",
          "type": "uint256"
        }
      ],
      "stateMutability": "view",
      "type": "function"
    },
    {
      "inputs": [],
      "name": "checkIfUserHasNFT",
      "outputs": [
        {
          "components": [
            {
              "internalType": "uint256",
              "name": "characterIndex",
              "type": "uint256"
            },
            {
              "internalType": "string",
              "name": "name",
              "type": "string"
            },
            {
              "internalType": "string",
              "name": "imageURI",
              "type": "string"
            },
            {
              "internalType": "uint256",
              "name": "hp",
              "type": "uint256"
            },
            {
              "internalType": "uint256",
              "name": "maxHp",
              "type": "uint256"
            },
            {
              "internalType": "uint256",
              "name": "attackDamage",
              "type": "uint256"
            }
          ],
          "internalType": "struct NFTGame.CharacterAttributes",
          "name": "",
          "type": "tuple"
        }
      ],
      "stateMutability": "view",
      "type": "function"
    },
    {
      "inputs": [],
      "name": "getAllDefaultCharacters",
      "outputs": [
        {
          "components": [
            {
              "internalType": "uint256",
              "name": "characterIndex",
              "type": "uint256"
            },
            {
              "internalType": "string",
              "name": "name",
              "type": "string"
            },
            {
              "internalType": "string",
              "name": "imageURI",
              "type": "string"
            },
            {
              "internalType": "uint256",
              "name": "hp",
              "type": "uint256"
            },
            {
              "internalType": "uint256",
              "name": "maxHp",
              "type": "uint256"
            },
            {
              "internalType": "uint256",
              "name": "attackDamage",
              "type": "uint256"
            }
          ],
          "internalType": "struct NFTGame.CharacterAttributes[]",
          "name": "",
          "type": "tuple[]"
        }
      ],
      "stateMutability": "view",
      "type": "function"
    },
    {
      "inputs": [
        {
          "internalType": "uint256",
          "name": "tokenId",
          "type": "uint256"
        }
      ],
      "name": "getApproved",
      "outputs": [
        {
          "internalType": "address",
          "name": "",
          "type": "address"
        }
      ],
      "stateMutability": "view",
      "type": "function"
    },
    {
      "inputs": [],
      "name": "getBigBoss",
      "outputs": [
        {
          "components": [
            {
              "internalType": "string",
              "name": "name",
              "type": "string"
            },
            {
              "internalType": "string",
              "name": "imageURI",
              "type": "string"
            },
            {
              "internalType": "uint256",
              "name": "hp",
              "type": "uint256"
            },
            {
              "internalType": "uint256",
              "name": "maxHp",
              "type": "uint256"
            },
            {
              "internalType": "uint256",
              "name": "attackDamage",
              "type": "uint256"
            }
          ],
          "internalType": "struct NFTGame.BigBoss",
          "name": "",
          "type": "tuple"
        }
      ],
      "stateMutability": "view",
      "type": "function"
    },
    {
      "inputs": [
        {
          "internalType": "address",
          "name": "owner",
          "type": "address"
        },
        {
          "internalType": "address",
          "name": "operator",
          "type": "address"
        }
      ],
      "name": "isApprovedForAll",
      "outputs": [
        {
          "internalType": "bool",
          "name": "",
          "type": "bool"
        }
      ],
      "stateMutability": "view",
      "type": "function"
    },
    {
      "inputs": [
        {
          "internalType": "uint256",
          "name": "_characterIndex",
          "type": "uint256"
        }
      ],
      "name": "mintCharacterNFT",
      "outputs": [],
      "stateMutability": "nonpayable",
      "type": "function"
    },
    {
      "inputs": [],
      "name": "name",
      "outputs": [
        {
          "internalType": "string",
          "name": "",
          "type": "string"
        }
      ],
      "stateMutability": "view",
      "type": "function"
    },
    {
      "inputs": [
        {
          "internalType": "uint256",
          "name": "",
          "type": "uint256"
        }
      ],
      "name": "nftHolderAttributes",
      "outputs": [
        {
          "internalType": "uint256",
          "name": "characterIndex",
          "type": "uint256"
        },
        {
          "internalType": "string",
          "name": "name",
          "type": "string"
        },
        {
          "internalType": "string",
          "name": "imageURI",
          "type": "string"
        },
        {
          "internalType": "uint256",
          "name": "hp",
          "type": "uint256"
        },
        {
          "internalType": "uint256",
          "name": "maxHp",
          "type": "uint256"
        },
        {
          "internalType": "uint256",
          "name": "attackDamage",
          "type": "uint256"
        }
      ],
      "stateMutability": "view",
      "type": "function"
    },
    {
      "inputs": [
        {
          "internalType": "address",
          "name": "",
          "type": "address"
        }
      ],
      "name": "nftHolders",
      "outputs": [
        {
          "internalType": "uint256",
          "name": "",
          "type": "uint256"
        }
      ],
      "stateMutability": "view",
      "type": "function"
    },
    {
      "inputs": [
        {
          "internalType": "uint256",
          "name": "tokenId",
          "type": "uint256"
        }
      ],
      "name": "ownerOf",
      "outputs": [
        {
          "internalType": "address",
          "name": "",
          "type": "address"
        }
      ],
      "stateMutability": "view",
      "type": "function"
    },
    {
      "inputs": [
        {
          "internalType": "address",
          "name": "from",
          "type": "address"
        },
        {
          "internalType": "address",
          "name": "to",
          "type": "address"
        },
        {
          "internalType": "uint256",
          "name": "tokenId",
          "type": "uint256"
        }
      ],
      "name": "safeTransferFrom",
      "outputs": [],
      "stateMutability": "nonpayable",
      "type": "function"
    },
    {
      "inputs": [
        {
          "internalType": "address",
          "name": "from",
          "type": "address"
        },
        {
          "internalType": "address",
          "name": "to",
          "type": "address"
        },
        {
          "internalType": "uint256",
          "name": "tokenId",
          "type": "uint256"
        },
        {
          "internalType": "bytes",
          "name": "_data",
          "type": "bytes"
        }
      ],
      "name": "safeTransferFrom",
      "outputs": [],
      "stateMutability": "nonpayable",
      "type": "function"
    },
    {
      "inputs": [
        {
          "internalType": "address",
          "name": "operator",
          "type": "address"
        },
        {
          "internalType": "bool",
          "name": "approved",
          "type": "bool"
        }
      ],
      "name": "setApprovalForAll",
      "outputs": [],
      "stateMutability": "nonpayable",
      "type": "function"
    },
    {
      "inputs": [
        {
          "internalType": "bytes4",
          "name": "interfaceId",
          "type": "bytes4"
        }
      ],
      "name": "supportsInterface",
      "outputs": [
        {
          "internalType": "bool",
          "name": "",
          "type": "bool"
        }
      ],
      "stateMutability": "view",
      "type": "function"
    },
    {
      "inputs": [],
      "name": "symbol",
      "outputs": [
        {
          "internalType": "string",
          "name": "",
          "type": "string"
        }
      ],
      "stateMutability": "view",
      "type": "function"
    },
    {
      "inputs": [
        {
          "internalType": "uint256",
          "name": "_tokenId",
          "type": "uint256"
        }
      ],
      "name": "tokenURI",
      "outputs": [
        {
          "internalType": "string",
          "name": "",
          "type": "string"
        }
      ],
      "stateMutability": "view",
      "type": "function"
    },
    {
      "inputs": [
        {
          "internalType": "address",
          "name": "from",
          "type": "address"
        },
        {
          "internalType": "address",
          "name": "to",
          "type": "address"
        },
        {
          "internalType": "uint256",
          "name": "tokenId",
          "type": "uint256"
        }
      ],
      "name": "transferFrom",
      "outputs": [],
      "stateMutability": "nonpayable",
      "type": "function"
    }
  ],
  "bytecode": "0x60806040523480156200001157600080fd5b50604051620057a1380380620057a1833981810160405281019062000037919062000b6f565b6040518060400160405280600681526020017f4865726f657300000000000000000000000000000000000000000000000000008152506040518060400160405280600481526020017f4845524f000000000000000000000000000000000000000000000000000000008152508160009080519060200190620000bb92919062000715565b508060019080519060200190620000d492919062000715565b5050506040518060a0016040528085815260200184815260200183815260200183815260200182815250600660008201518160000190805190602001906200011e92919062000715565b5060208201518160010190805190602001906200013d92919062000715565b50604082015181600201556060820151816003015560808201518160040155905050620002c06040518060600160405280602a815260200162005777602a9139600660000180546200018f9062000d21565b80601f0160208091040260200160405190810160405280929190818152602001828054620001bd9062000d21565b80156200020e5780601f10620001e2576101008083540402835291602001916200020e565b820191906000526020600020905b815481529060010190602001808311620001f057829003601f168201915b5050505050600660020154600660010180546200022b9062000d21565b80601f0160208091040260200160405190810160405280929190818152602001828054620002599062000d21565b8015620002aa5780601f106200027e57610100808354040283529160200191620002aa565b820191906000526020600020905b8154815290600101906020018083116200028c57829003601f168201915b50505050506200062a60201b62001b191760201c565b60005b88518110156200060457600c6040518060c001604052808381526020018b8481518110620002f657620002f562000d57565b5b602002602001015181526020018a848151811062000319576200031862000d57565b5b602002602001015181526020018984815181106200033c576200033b62000d57565b5b602002602001015181526020018984815181106200035f576200035e62000d57565b5b6020026020010151815260200188848151811062000382576200038162000d57565b5b60200260200101518152509080600181540180825580915050600190039060005260206000209060060201600090919091909150600082015181600001556020820151816001019080519060200190620003de92919062000715565b506040820151816002019080519060200190620003fd92919062000715565b50606082015181600301556080820151816004015560a0820151816005015550506000600c828154811062000437576200043662000d57565b5b90600052602060002090600602016040518060c0016040529081600082015481526020016001820180546200046c9062000d21565b80601f01602080910402602001604051908101604052809291908181526020018280546200049a9062000d21565b8015620004eb5780601f10620004bf57610100808354040283529160200191620004eb565b820191906000526020600020905b815481529060010190602001808311620004cd57829003601f168201915b50505050508152602001600282018054620005069062000d21565b80601f0160208091040260200160405190810160405280929190818152602001828054620005349062000d21565b8015620005855780601f10620005595761010080835404028352916020019162000585565b820191906000526020600020905b8154815290600101906020018083116200056757829003601f168201915b5050505050815260200160038201548152602001600482015481526020016005820154815250509050620005ec60405180606001604052806025815260200162005752602591398260200151836060015184604001516200062a60201b62001b191760201c565b50600181620005fc919062000db5565b9050620002c3565b506200061c600b620006d660201b62001bbb1760201c565b505050505050505062000ee2565b620006d08484848460405160240162000647949392919062000e80565b6040516020818303038152906040527f8d142cdd000000000000000000000000000000000000000000000000000000007bffffffffffffffffffffffffffffffffffffffffffffffffffffffff19166020820180517bffffffffffffffffffffffffffffffffffffffffffffffffffffffff8381831617835250505050620006ec60201b60201c565b50505050565b6001816000016000828254019250508190555050565b60008151905060006a636f6e736f6c652e6c6f679050602083016000808483855afa5050505050565b828054620007239062000d21565b90600052602060002090601f01602090048101928262000747576000855562000793565b82601f106200076257805160ff191683800117855562000793565b8280016001018555821562000793579182015b828111156200079257825182559160200191906001019062000775565b5b509050620007a29190620007a6565b5090565b5b80821115620007c1576000816000905550600101620007a7565b5090565b6000604051905090565b600080fd5b600080fd5b600080fd5b6000601f19601f8301169050919050565b7f4e487b7100000000000000000000000000000000000000000000000000000000600052604160045260246000fd5b6200082982620007de565b810181811067ffffffffffffffff821117156200084b576200084a620007ef565b5b80604052505050565b600062000860620007c5565b90506200086e82826200081e565b919050565b600067ffffffffffffffff821115620008915762000890620007ef565b5b602082029050602081019050919050565b600080fd5b600080fd5b600067ffffffffffffffff821115620008ca57620008c9620007ef565b5b620008d582620007de565b9050602081019050919050565b60005b8381101562000902578082015181840152602081019050620008e5565b8381111562000912576000848401525b50505050565b60006200092f6200092984620008ac565b62000854565b9050828152602081018484840111156200094e576200094d620008a7565b5b6200095b848285620008e2565b509392505050565b600082601f8301126200097b576200097a620007d9565b5b81516200098d84826020860162000918565b91505092915050565b6000620009ad620009a78462000873565b62000854565b90508083825260208201905060208402830185811115620009d357620009d2620008a2565b5b835b8181101562000a2157805167ffffffffffffffff811115620009fc57620009fb620007d9565b5b80860162000a0b898262000963565b85526020850194505050602081019050620009d5565b5050509392505050565b600082601f83011262000a435762000a42620007d9565b5b815162000a5584826020860162000996565b91505092915050565b600067ffffffffffffffff82111562000a7c5762000a7b620007ef565b5b602082029050602081019050919050565b6000819050919050565b62000aa28162000a8d565b811462000aae57600080fd5b50565b60008151905062000ac28162000a97565b92915050565b600062000adf62000ad98462000a5e565b62000854565b9050808382526020820190506020840283018581111562000b055762000b04620008a2565b5b835b8181101562000b32578062000b1d888262000ab1565b84526020840193505060208101905062000b07565b5050509392505050565b600082601f83011262000b545762000b53620007d9565b5b815162000b6684826020860162000ac8565b91505092915050565b600080600080600080600080610100898b03121562000b935762000b92620007cf565b5b600089015167ffffffffffffffff81111562000bb45762000bb3620007d4565b5b62000bc28b828c0162000a2b565b985050602089015167ffffffffffffffff81111562000be65762000be5620007d4565b5b62000bf48b828c0162000a2b565b975050604089015167ffffffffffffffff81111562000c185762000c17620007d4565b5b62000c268b828c0162000b3c565b965050606089015167ffffffffffffffff81111562000c4a5762000c49620007d4565b5b62000c588b828c0162000b3c565b955050608089015167ffffffffffffffff81111562000c7c5762000c7b620007d4565b5b62000c8a8b828c0162000963565b94505060a089015167ffffffffffffffff81111562000cae5762000cad620007d4565b5b62000cbc8b828c0162000963565b93505060c062000ccf8b828c0162000ab1565b92505060e062000ce28b828c0162000ab1565b9150509295985092959890939650565b7f4e487b7100000000000000000000000000000000000000000000000000000000600052602260045260246000fd5b6000600282049050600182168062000d3a57607f821691505b6020821081141562000d515762000d5062000cf2565b5b50919050565b7f4e487b7100000000000000000000000000000000000000000000000000000000600052603260045260246000fd5b7f4e487b7100000000000000000000000000000000000000000000000000000000600052601160045260246000fd5b600062000dc28262000a8d565b915062000dcf8362000a8d565b9250827fffffffffffffffffffffffffffffffffffffffffffffffffffffffffffffffff0382111562000e075762000e0662000d86565b5b828201905092915050565b600081519050919050565b600082825260208201905092915050565b600062000e3b8262000e12565b62000e47818562000e1d565b935062000e59818560208601620008e2565b62000e6481620007de565b840191505092915050565b62000e7a8162000a8d565b82525050565b6000608082019050818103600083015262000e9c818762000e2e565b9050818103602083015262000eb2818662000e2e565b905062000ec3604083018562000e6f565b818103606083015262000ed7818462000e2e565b905095945050505050565b6148608062000ef26000396000f3fe608060405234801561001057600080fd5b50600436106101375760003560e01c806395d89b41116100b8578063b953084e1161007c578063b953084e14610369578063c87b56dd14610387578063c8cf27f4146103b7578063d4f24c5b146103d5578063e985e9c5146103df578063f8b81ef71461040f57610137565b806395d89b41146102bc57806398da4c95146102da578063a22cb4651461030f578063a9c326791461032b578063b88d4fde1461034d57610137565b806323b872dd116100ff57806323b872dd146101f457806342842e0e146102105780636352211e1461022c57806370a082311461025c5780637df124a11461028c57610137565b806301ffc9a71461013c5780630665f9611461016c57806306fdde031461018a578063081812fc146101a8578063095ea7b3146101d8575b600080fd5b61015660048036038101906101519190612cff565b61042b565b6040516101639190612d47565b60405180910390f35b61017461050d565b6040516101819190612e91565b60405180910390f35b610192610669565b60405161019f9190612efd565b60405180910390f35b6101c260048036038101906101bd9190612f4b565b6106fb565b6040516101cf9190612fb9565b60405180910390f35b6101f260048036038101906101ed9190613000565b610780565b005b61020e60048036038101906102099190613040565b610898565b005b61022a60048036038101906102259190613040565b6108f8565b005b61024660048036038101906102419190612f4b565b610918565b6040516102539190612fb9565b60405180910390f35b61027660048036038101906102719190613093565b6109ca565b60405161028391906130cf565b60405180910390f35b6102a660048036038101906102a19190613093565b610a82565b6040516102b391906130cf565b60405180910390f35b6102c4610a9a565b6040516102d19190612efd565b60405180910390f35b6102f460048036038101906102ef9190612f4b565b610b2c565b604051610306969594939291906130ea565b60405180910390f35b61032960048036038101906103249190613185565b610c78565b005b610333610c8e565b6040516103449594939291906131c5565b60405180910390f35b6103676004803603810190610362919061335b565b610dc2565b005b610371610e24565b60405161037e9190613530565b60405180910390f35b6103a1600480360381019061039c9190612f4b565b610fcf565b6040516103ae9190612efd565b60405180910390f35b6103bf6111ea565b6040516103cc91906135e2565b60405180910390f35b6103dd6113c2565b005b6103f960048036038101906103f49190613604565b61174f565b6040516104069190612d47565b60405180910390f35b61042960048036038101906104249190612f4b565b6117e3565b005b60007f80ac58cd000000000000000000000000000000000000000000000000000000007bffffffffffffffffffffffffffffffffffffffffffffffffffffffff1916827bffffffffffffffffffffffffffffffffffffffffffffffffffffffff191614806104f657507f5b5e139f000000000000000000000000000000000000000000000000000000007bffffffffffffffffffffffffffffffffffffffffffffffffffffffff1916827bffffffffffffffffffffffffffffffffffffffffffffffffffffffff1916145b80610506575061050582611bd1565b5b9050919050565b610515612b8b565b60066040518060a001604052908160008201805461053290613673565b80601f016020809104026020016040519081016040528092919081815260200182805461055e90613673565b80156105ab5780601f10610580576101008083540402835291602001916105ab565b820191906000526020600020905b81548152906001019060200180831161058e57829003601f168201915b505050505081526020016001820180546105c490613673565b80601f01602080910402602001604051908101604052809291908181526020018280546105f090613673565b801561063d5780601f106106125761010080835404028352916020019161063d565b820191906000526020600020905b81548152906001019060200180831161062057829003601f168201915b505050505081526020016002820154815260200160038201548152602001600482015481525050905090565b60606000805461067890613673565b80601f01602080910402602001604051908101604052809291908181526020018280546106a490613673565b80156106f15780601f106106c6576101008083540402835291602001916106f1565b820191906000526020600020905b8154815290600101906020018083116106d457829003601f168201915b5050505050905090565b600061070682611c3b565b610745576040517f08c379a000000000000000000000000000000000000000000000000000000000815260040161073c90613717565b60405180910390fd5b6004600083815260200190815260200160002060009054906101000a900473ffffffffffffffffffffffffffffffffffffffff169050919050565b600061078b82610918565b90508073ffffffffffffffffffffffffffffffffffffffff168373ffffffffffffffffffffffffffffffffffffffff1614156107fc576040517f08c379a00000000000000000000000000000000000000000000000000000000081526004016107f3906137a9565b60405180910390fd5b8073ffffffffffffffffffffffffffffffffffffffff1661081b611ca7565b73ffffffffffffffffffffffffffffffffffffffff16148061084a575061084981610844611ca7565b61174f565b5b610889576040517f08c379a00000000000000000000000000000000000000000000000000000000081526004016108809061383b565b60405180910390fd5b6108938383611caf565b505050565b6108a96108a3611ca7565b82611d68565b6108e8576040517f08c379a00000000000000000000000000000000000000000000000000000000081526004016108df906138cd565b60405180910390fd5b6108f3838383611e46565b505050565b61091383838360405180602001604052806000815250610dc2565b505050565b6000806002600084815260200190815260200160002060009054906101000a900473ffffffffffffffffffffffffffffffffffffffff169050600073ffffffffffffffffffffffffffffffffffffffff168173ffffffffffffffffffffffffffffffffffffffff1614156109c1576040517f08c379a00000000000000000000000000000000000000000000000000000000081526004016109b89061395f565b60405180910390fd5b80915050919050565b60008073ffffffffffffffffffffffffffffffffffffffff168273ffffffffffffffffffffffffffffffffffffffff161415610a3b576040517f08c379a0000000000000000000000000000000000000000000000000000000008152600401610a32906139f1565b60405180910390fd5b600360008373ffffffffffffffffffffffffffffffffffffffff1673ffffffffffffffffffffffffffffffffffffffff168152602001908152602001600020549050919050565b600e6020528060005260406000206000915090505481565b606060018054610aa990613673565b80601f0160208091040260200160405190810160405280929190818152602001828054610ad590613673565b8015610b225780601f10610af757610100808354040283529160200191610b22565b820191906000526020600020905b815481529060010190602001808311610b0557829003601f168201915b5050505050905090565b600d602052806000526040600020600091509050806000015490806001018054610b5590613673565b80601f0160208091040260200160405190810160405280929190818152602001828054610b8190613673565b8015610bce5780601f10610ba357610100808354040283529160200191610bce565b820191906000526020600020905b815481529060010190602001808311610bb157829003601f168201915b505050505090806002018054610be390613673565b80601f0160208091040260200160405190810160405280929190818152602001828054610c0f90613673565b8015610c5c5780601f10610c3157610100808354040283529160200191610c5c565b820191906000526020600020905b815481529060010190602001808311610c3f57829003601f168201915b5050505050908060030154908060040154908060050154905086565b610c8a610c83611ca7565b83836120ad565b5050565b6006806000018054610c9f90613673565b80601f0160208091040260200160405190810160405280929190818152602001828054610ccb90613673565b8015610d185780601f10610ced57610100808354040283529160200191610d18565b820191906000526020600020905b815481529060010190602001808311610cfb57829003601f168201915b505050505090806001018054610d2d90613673565b80601f0160208091040260200160405190810160405280929190818152602001828054610d5990613673565b8015610da65780601f10610d7b57610100808354040283529160200191610da6565b820191906000526020600020905b815481529060010190602001808311610d8957829003601f168201915b5050505050908060020154908060030154908060040154905085565b610dd3610dcd611ca7565b83611d68565b610e12576040517f08c379a0000000000000000000000000000000000000000000000000000000008152600401610e09906138cd565b60405180910390fd5b610e1e8484848461221a565b50505050565b6060600c805480602002602001604051908101604052809291908181526020016000905b82821015610fc657838290600052602060002090600602016040518060c001604052908160008201548152602001600182018054610e8590613673565b80601f0160208091040260200160405190810160405280929190818152602001828054610eb190613673565b8015610efe5780601f10610ed357610100808354040283529160200191610efe565b820191906000526020600020905b815481529060010190602001808311610ee157829003601f168201915b50505050508152602001600282018054610f1790613673565b80601f0160208091040260200160405190810160405280929190818152602001828054610f4390613673565b8015610f905780601f10610f6557610100808354040283529160200191610f90565b820191906000526020600020905b815481529060010190602001808311610f7357829003601f168201915b50505050508152602001600382015481526020016004820154815260200160058201548152505081526020019060010190610e48565b50505050905090565b60606000600d60008481526020019081526020016000206040518060c00160405290816000820154815260200160018201805461100b90613673565b80601f016020809104026020016040519081016040528092919081815260200182805461103790613673565b80156110845780601f1061105957610100808354040283529160200191611084565b820191906000526020600020905b81548152906001019060200180831161106757829003601f168201915b5050505050815260200160028201805461109d90613673565b80601f01602080910402602001604051908101604052809291908181526020018280546110c990613673565b80156111165780601f106110eb57610100808354040283529160200191611116565b820191906000526020600020905b8154815290600101906020018083116110f957829003601f168201915b5050505050815260200160038201548152602001600482015481526020016005820154815250509050600061114e8260600151612276565b9050600061115f8360800151612276565b905060006111708460a00151612276565b905060006111b6856020015161118589612276565b87604001518787876040516020016111a296959493929190613d1f565b6040516020818303038152906040526123d7565b90506000816040516020016111cb9190613e10565b6040516020818303038152906040529050809650505050505050919050565b6111f2612bba565b6000600e60003373ffffffffffffffffffffffffffffffffffffffff1673ffffffffffffffffffffffffffffffffffffffff16815260200190815260200160002054905060008111156113b157600d60008281526020019081526020016000206040518060c00160405290816000820154815260200160018201805461127790613673565b80601f01602080910402602001604051908101604052809291908181526020018280546112a390613673565b80156112f05780601f106112c5576101008083540402835291602001916112f0565b820191906000526020600020905b8154815290600101906020018083116112d357829003601f168201915b5050505050815260200160028201805461130990613673565b80601f016020809104026020016040519081016040528092919081815260200182805461133590613673565b80156113825780601f1061135757610100808354040283529160200191611382565b820191906000526020600020905b81548152906001019060200180831161136557829003601f168201915b5050505050815260200160038201548152602001600482015481526020016005820154815250509150506113bf565b6113b9612bba565b80925050505b90565b6000600e60003373ffffffffffffffffffffffffffffffffffffffff1673ffffffffffffffffffffffffffffffffffffffff1681526020019081526020016000205490506000600d600083815260200190815260200160002090506114d56040518060600160405280603c81526020016147ef603c913982600101805461144890613673565b80601f016020809104026020016040519081016040528092919081815260200182805461147490613673565b80156114c15780601f10611496576101008083540402835291602001916114c1565b820191906000526020600020905b8154815290600101906020018083116114a457829003601f168201915b50505050508360030154846005015461256f565b6115ad6040518060400160405280601b81526020017f426f73732025732068617320257320485020616e6420257320414400000000008152506006600001805461151e90613673565b80601f016020809104026020016040519081016040528092919081815260200182805461154a90613673565b80156115975780601f1061156c57610100808354040283529160200191611597565b820191906000526020600020905b81548152906001019060200180831161157a57829003601f168201915b505050505060066002015460066004015461256f565b60008160030154116115f4576040517f08c379a00000000000000000000000000000000000000000000000000000000081526004016115eb90613ea4565b60405180910390fd5b60006006600201541161163c576040517f08c379a000000000000000000000000000000000000000000000000000000000815260040161163390613f36565b60405180910390fd5b8060050154600660020154101561165d57600060066002018190555061167c565b80600501546006600201546116729190613f85565b6006600201819055505b6006600401548160030154101561169c57600081600301819055506116ba565b60066004015481600301546116b19190613f85565b81600301819055505b6116e160405180606001604052806025815260200161473460259139600660020154612611565b611707604051806060016040528060288152602001614799602891398260030154612611565b7f32bd565ee3f2cb5ddd742bbecd6048d3e9abe90b3827a40c2b72d232e71e3c9d33600660020154836003015460405161174393929190613fb9565b60405180910390a15050565b6000600560008473ffffffffffffffffffffffffffffffffffffffff1673ffffffffffffffffffffffffffffffffffffffff16815260200190815260200160002060008373ffffffffffffffffffffffffffffffffffffffff1673ffffffffffffffffffffffffffffffffffffffff16815260200190815260200160002060009054906101000a900460ff16905092915050565b60006117ef600b6126ad565b90506117fb33826126bb565b6040518060c00160405280838152602001600c84815481106118205761181f613ff0565b5b9060005260206000209060060201600101805461183c90613673565b80601f016020809104026020016040519081016040528092919081815260200182805461186890613673565b80156118b55780601f1061188a576101008083540402835291602001916118b5565b820191906000526020600020905b81548152906001019060200180831161189857829003601f168201915b50505050508152602001600c84815481106118d3576118d2613ff0565b5b906000526020600020906006020160020180546118ef90613673565b80601f016020809104026020016040519081016040528092919081815260200182805461191b90613673565b80156119685780601f1061193d57610100808354040283529160200191611968565b820191906000526020600020905b81548152906001019060200180831161194b57829003601f168201915b50505050508152602001600c848154811061198657611985613ff0565b5b9060005260206000209060060201600301548152602001600c84815481106119b1576119b0613ff0565b5b9060005260206000209060060201600401548152602001600c84815481106119dc576119db613ff0565b5b906000526020600020906006020160050154815250600d6000838152602001908152602001600020600082015181600001556020820151816001019080519060200190611a2a929190612bf0565b506040820151816002019080519060200190611a47929190612bf0565b50606082015181600301556080820151816004015560a08201518160050155905050611a8c6040518060600160405280602e81526020016147c1602e913982846126d9565b80600e60003373ffffffffffffffffffffffffffffffffffffffff1673ffffffffffffffffffffffffffffffffffffffff16815260200190815260200160002081905550611ada600b611bbb565b7f4bc303fd457a97b4691b9af582ce71868a3d258638c8d4f8c60988a0f0bfb8cd338284604051611b0d93929190613fb9565b60405180910390a15050565b611bb584848484604051602401611b33949392919061401f565b6040516020818303038152906040527f8d142cdd000000000000000000000000000000000000000000000000000000007bffffffffffffffffffffffffffffffffffffffffffffffffffffffff19166020820180517bffffffffffffffffffffffffffffffffffffffffffffffffffffffff8381831617835250505050612778565b50505050565b6001816000016000828254019250508190555050565b60007f01ffc9a7000000000000000000000000000000000000000000000000000000007bffffffffffffffffffffffffffffffffffffffffffffffffffffffff1916827bffffffffffffffffffffffffffffffffffffffffffffffffffffffff1916149050919050565b60008073ffffffffffffffffffffffffffffffffffffffff166002600084815260200190815260200160002060009054906101000a900473ffffffffffffffffffffffffffffffffffffffff1673ffffffffffffffffffffffffffffffffffffffff1614159050919050565b600033905090565b816004600083815260200190815260200160002060006101000a81548173ffffffffffffffffffffffffffffffffffffffff021916908373ffffffffffffffffffffffffffffffffffffffff160217905550808273ffffffffffffffffffffffffffffffffffffffff16611d2283610918565b73ffffffffffffffffffffffffffffffffffffffff167f8c5be1e5ebec7d5bd14f71427d1e84f3dd0314c0f7b2291e5b200ac8c7c3b92560405160405180910390a45050565b6000611d7382611c3b565b611db2576040517f08c379a0000000000000000000000000000000000000000000000000000000008152600401611da9906140eb565b60405180910390fd5b6000611dbd83610918565b90508073ffffffffffffffffffffffffffffffffffffffff168473ffffffffffffffffffffffffffffffffffffffff161480611dff5750611dfe818561174f565b5b80611e3d57508373ffffffffffffffffffffffffffffffffffffffff16611e25846106fb565b73ffffffffffffffffffffffffffffffffffffffff16145b91505092915050565b8273ffffffffffffffffffffffffffffffffffffffff16611e6682610918565b73ffffffffffffffffffffffffffffffffffffffff1614611ebc576040517f08c379a0000000000000000000000000000000000000000000000000000000008152600401611eb39061417d565b60405180910390fd5b600073ffffffffffffffffffffffffffffffffffffffff168273ffffffffffffffffffffffffffffffffffffffff161415611f2c576040517f08c379a0000000000000000000000000000000000000000000000000000000008152600401611f239061420f565b60405180910390fd5b611f378383836127a1565b611f42600082611caf565b6001600360008573ffffffffffffffffffffffffffffffffffffffff1673ffffffffffffffffffffffffffffffffffffffff1681526020019081526020016000206000828254611f929190613f85565b925050819055506001600360008473ffffffffffffffffffffffffffffffffffffffff1673ffffffffffffffffffffffffffffffffffffffff1681526020019081526020016000206000828254611fe9919061422f565b92505081905550816002600083815260200190815260200160002060006101000a81548173ffffffffffffffffffffffffffffffffffffffff021916908373ffffffffffffffffffffffffffffffffffffffff160217905550808273ffffffffffffffffffffffffffffffffffffffff168473ffffffffffffffffffffffffffffffffffffffff167fddf252ad1be2c89b69c2b068fc378daa952ba7f163c4a11628f55a4df523b3ef60405160405180910390a46120a88383836127a6565b505050565b8173ffffffffffffffffffffffffffffffffffffffff168373ffffffffffffffffffffffffffffffffffffffff16141561211c576040517f08c379a0000000000000000000000000000000000000000000000000000000008152600401612113906142d1565b60405180910390fd5b80600560008573ffffffffffffffffffffffffffffffffffffffff1673ffffffffffffffffffffffffffffffffffffffff16815260200190815260200160002060008473ffffffffffffffffffffffffffffffffffffffff1673ffffffffffffffffffffffffffffffffffffffff16815260200190815260200160002060006101000a81548160ff0219169083151502179055508173ffffffffffffffffffffffffffffffffffffffff168373ffffffffffffffffffffffffffffffffffffffff167f17307eab39ab6107e8899845ad3d59bd9653f200f220920489ca2b5937696c318360405161220d9190612d47565b60405180910390a3505050565b612225848484611e46565b612231848484846127ab565b612270576040517f08c379a000000000000000000000000000000000000000000000000000000000815260040161226790614363565b60405180910390fd5b50505050565b606060008214156122be576040518060400160405280600181526020017f300000000000000000000000000000000000000000000000000000000000000081525090506123d2565b600082905060005b600082146122f05780806122d990614383565b915050600a826122e991906143fb565b91506122c6565b60008167ffffffffffffffff81111561230c5761230b613230565b5b6040519080825280601f01601f19166020018201604052801561233e5781602001600182028036833780820191505090505b5090505b600085146123cb576001826123579190613f85565b9150600a85612366919061442c565b6030612372919061422f565b60f81b81838151811061238857612387613ff0565b5b60200101907effffffffffffffffffffffffffffffffffffffffffffffffffffffffffffff1916908160001a905350600a856123c491906143fb565b9450612342565b8093505050505b919050565b60606000825190506000811415612400576040518060200160405280600081525091505061256a565b60006003600283612411919061422f565b61241b91906143fb565b6004612427919061445d565b90506000602082612438919061422f565b67ffffffffffffffff81111561245157612450613230565b5b6040519080825280601f01601f1916602001820160405280156124835781602001600182028036833780820191505090505b5090506000604051806060016040528060408152602001614759604091399050600181016020830160005b868110156125275760038101905062ffffff818a015116603f8160121c168401518060081b905060ff603f83600c1c1686015116810190508060081b905060ff603f8360061c1686015116810190508060081b905060ff603f831686015116810190508060e01b905080845260048401935050506124ae565b50600386066001811461254157600281146125515761255c565b613d3d60f01b600283035261255c565b603d60f81b60018303525b508484525050819450505050505b919050565b61260b8484848460405160240161258994939291906144b7565b6040516020818303038152906040527fd5cf17d0000000000000000000000000000000000000000000000000000000007bffffffffffffffffffffffffffffffffffffffffffffffffffffffff19166020820180517bffffffffffffffffffffffffffffffffffffffffffffffffffffffff8381831617835250505050612778565b50505050565b6126a9828260405160240161262792919061450a565b6040516020818303038152906040527f9710a9d0000000000000000000000000000000000000000000000000000000007bffffffffffffffffffffffffffffffffffffffffffffffffffffffff19166020820180517bffffffffffffffffffffffffffffffffffffffffffffffffffffffff8381831617835250505050612778565b5050565b600081600001549050919050565b6126d5828260405180602001604052806000815250612933565b5050565b6127738383836040516024016126f19392919061453a565b6040516020818303038152906040527f969cdd03000000000000000000000000000000000000000000000000000000007bffffffffffffffffffffffffffffffffffffffffffffffffffffffff19166020820180517bffffffffffffffffffffffffffffffffffffffffffffffffffffffff8381831617835250505050612778565b505050565b60008151905060006a636f6e736f6c652e6c6f679050602083016000808483855afa5050505050565b505050565b505050565b60006127cc8473ffffffffffffffffffffffffffffffffffffffff1661298e565b15612926578373ffffffffffffffffffffffffffffffffffffffff1663150b7a026127f5611ca7565b8786866040518563ffffffff1660e01b815260040161281794939291906145cd565b6020604051808303816000875af192505050801561285357506040513d601f19601f82011682018060405250810190612850919061462e565b60015b6128d6573d8060008114612883576040519150601f19603f3d011682016040523d82523d6000602084013e612888565b606091505b506000815114156128ce576040517f08c379a00000000000000000000000000000000000000000000000000000000081526004016128c590614363565b60405180910390fd5b805181602001fd5b63150b7a0260e01b7bffffffffffffffffffffffffffffffffffffffffffffffffffffffff1916817bffffffffffffffffffffffffffffffffffffffffffffffffffffffff19161491505061292b565b600190505b949350505050565b61293d83836129b1565b61294a60008484846127ab565b612989576040517f08c379a000000000000000000000000000000000000000000000000000000000815260040161298090614363565b60405180910390fd5b505050565b6000808273ffffffffffffffffffffffffffffffffffffffff163b119050919050565b600073ffffffffffffffffffffffffffffffffffffffff168273ffffffffffffffffffffffffffffffffffffffff161415612a21576040517f08c379a0000000000000000000000000000000000000000000000000000000008152600401612a18906146a7565b60405180910390fd5b612a2a81611c3b565b15612a6a576040517f08c379a0000000000000000000000000000000000000000000000000000000008152600401612a6190614713565b60405180910390fd5b612a76600083836127a1565b6001600360008473ffffffffffffffffffffffffffffffffffffffff1673ffffffffffffffffffffffffffffffffffffffff1681526020019081526020016000206000828254612ac6919061422f565b92505081905550816002600083815260200190815260200160002060006101000a81548173ffffffffffffffffffffffffffffffffffffffff021916908373ffffffffffffffffffffffffffffffffffffffff160217905550808273ffffffffffffffffffffffffffffffffffffffff16600073ffffffffffffffffffffffffffffffffffffffff167fddf252ad1be2c89b69c2b068fc378daa952ba7f163c4a11628f55a4df523b3ef60405160405180910390a4612b87600083836127a6565b5050565b6040518060a0016040528060608152602001606081526020016000815260200160008152602001600081525090565b6040518060c001604052806000815260200160608152602001606081526020016000815260200160008152602001600081525090565b828054612bfc90613673565b90600052602060002090601f016020900481019282612c1e5760008555612c65565b82601f10612c3757805160ff1916838001178555612c65565b82800160010185558215612c65579182015b82811115612c64578251825591602001919060010190612c49565b5b509050612c729190612c76565b5090565b5b80821115612c8f576000816000905550600101612c77565b5090565b6000604051905090565b600080fd5b600080fd5b60007fffffffff0000000000000000000000000000000000000000000000000000000082169050919050565b612cdc81612ca7565b8114612ce757600080fd5b50565b600081359050612cf981612cd3565b92915050565b600060208284031215612d1557612d14612c9d565b5b6000612d2384828501612cea565b91505092915050565b60008115159050919050565b612d4181612d2c565b82525050565b6000602082019050612d5c6000830184612d38565b92915050565b600081519050919050565b600082825260208201905092915050565b60005b83811015612d9c578082015181840152602081019050612d81565b83811115612dab576000848401525b50505050565b6000601f19601f8301169050919050565b6000612dcd82612d62565b612dd78185612d6d565b9350612de7818560208601612d7e565b612df081612db1565b840191505092915050565b6000819050919050565b612e0e81612dfb565b82525050565b600060a0830160008301518482036000860152612e318282612dc2565b91505060208301518482036020860152612e4b8282612dc2565b9150506040830151612e606040860182612e05565b506060830151612e736060860182612e05565b506080830151612e866080860182612e05565b508091505092915050565b60006020820190508181036000830152612eab8184612e14565b905092915050565b600082825260208201905092915050565b6000612ecf82612d62565b612ed98185612eb3565b9350612ee9818560208601612d7e565b612ef281612db1565b840191505092915050565b60006020820190508181036000830152612f178184612ec4565b905092915050565b612f2881612dfb565b8114612f3357600080fd5b50565b600081359050612f4581612f1f565b92915050565b600060208284031215612f6157612f60612c9d565b5b6000612f6f84828501612f36565b91505092915050565b600073ffffffffffffffffffffffffffffffffffffffff82169050919050565b6000612fa382612f78565b9050919050565b612fb381612f98565b82525050565b6000602082019050612fce6000830184612faa565b92915050565b612fdd81612f98565b8114612fe857600080fd5b50565b600081359050612ffa81612fd4565b92915050565b6000806040838503121561301757613016612c9d565b5b600061302585828601612feb565b925050602061303685828601612f36565b9150509250929050565b60008060006060848603121561305957613058612c9d565b5b600061306786828701612feb565b935050602061307886828701612feb565b925050604061308986828701612f36565b9150509250925092565b6000602082840312156130a9576130a8612c9d565b5b60006130b784828501612feb565b91505092915050565b6130c981612dfb565b82525050565b60006020820190506130e460008301846130c0565b92915050565b600060c0820190506130ff60008301896130c0565b81810360208301526131118188612ec4565b905081810360408301526131258187612ec4565b905061313460608301866130c0565b61314160808301856130c0565b61314e60a08301846130c0565b979650505050505050565b61316281612d2c565b811461316d57600080fd5b50565b60008135905061317f81613159565b92915050565b6000806040838503121561319c5761319b612c9d565b5b60006131aa85828601612feb565b92505060206131bb85828601613170565b9150509250929050565b600060a08201905081810360008301526131df8188612ec4565b905081810360208301526131f38187612ec4565b905061320260408301866130c0565b61320f60608301856130c0565b61321c60808301846130c0565b9695505050505050565b600080fd5b600080fd5b7f4e487b7100000000000000000000000000000000000000000000000000000000600052604160045260246000fd5b61326882612db1565b810181811067ffffffffffffffff8211171561328757613286613230565b5b80604052505050565b600061329a612c93565b90506132a6828261325f565b919050565b600067ffffffffffffffff8211156132c6576132c5613230565b5b6132cf82612db1565b9050602081019050919050565b82818337600083830152505050565b60006132fe6132f9846132ab565b613290565b90508281526020810184848401111561331a5761331961322b565b5b6133258482856132dc565b509392505050565b600082601f83011261334257613341613226565b5b81356133528482602086016132eb565b91505092915050565b6000806000806080858703121561337557613374612c9d565b5b600061338387828801612feb565b945050602061339487828801612feb565b93505060406133a587828801612f36565b925050606085013567ffffffffffffffff8111156133c6576133c5612ca2565b5b6133d28782880161332d565b91505092959194509250565b600081519050919050565b600082825260208201905092915050565b6000819050602082019050919050565b600060c0830160008301516134226000860182612e05565b506020830151848203602086015261343a8282612dc2565b915050604083015184820360408601526134548282612dc2565b91505060608301516134696060860182612e05565b50608083015161347c6080860182612e05565b5060a083015161348f60a0860182612e05565b508091505092915050565b60006134a6838361340a565b905092915050565b6000602082019050919050565b60006134c6826133de565b6134d081856133e9565b9350836020820285016134e2856133fa565b8060005b8581101561351e57848403895281516134ff858261349a565b945061350a836134ae565b925060208a019950506001810190506134e6565b50829750879550505050505092915050565b6000602082019050818103600083015261354a81846134bb565b905092915050565b600060c08301600083015161356a6000860182612e05565b50602083015184820360208601526135828282612dc2565b9150506040830151848203604086015261359c8282612dc2565b91505060608301516135b16060860182612e05565b5060808301516135c46080860182612e05565b5060a08301516135d760a0860182612e05565b508091505092915050565b600060208201905081810360008301526135fc8184613552565b905092915050565b6000806040838503121561361b5761361a612c9d565b5b600061362985828601612feb565b925050602061363a85828601612feb565b9150509250929050565b7f4e487b7100000000000000000000000000000000000000000000000000000000600052602260045260246000fd5b6000600282049050600182168061368b57607f821691505b6020821081141561369f5761369e613644565b5b50919050565b7f4552433732313a20617070726f76656420717565727920666f72206e6f6e657860008201527f697374656e7420746f6b656e0000000000000000000000000000000000000000602082015250565b6000613701602c83612eb3565b915061370c826136a5565b604082019050919050565b60006020820190508181036000830152613730816136f4565b9050919050565b7f4552433732313a20617070726f76616c20746f2063757272656e74206f776e6560008201527f7200000000000000000000000000000000000000000000000000000000000000602082015250565b6000613793602183612eb3565b915061379e82613737565b604082019050919050565b600060208201905081810360008301526137c281613786565b9050919050565b7f4552433732313a20617070726f76652063616c6c6572206973206e6f74206f7760008201527f6e6572206e6f7220617070726f76656420666f7220616c6c0000000000000000602082015250565b6000613825603883612eb3565b9150613830826137c9565b604082019050919050565b6000602082019050818103600083015261385481613818565b9050919050565b7f4552433732313a207472616e736665722063616c6c6572206973206e6f74206f60008201527f776e6572206e6f7220617070726f766564000000000000000000000000000000602082015250565b60006138b7603183612eb3565b91506138c28261385b565b604082019050919050565b600060208201905081810360008301526138e6816138aa565b9050919050565b7f4552433732313a206f776e657220717565727920666f72206e6f6e657869737460008201527f656e7420746f6b656e0000000000000000000000000000000000000000000000602082015250565b6000613949602983612eb3565b9150613954826138ed565b604082019050919050565b600060208201905081810360008301526139788161393c565b9050919050565b7f4552433732313a2062616c616e636520717565727920666f7220746865207a6560008201527f726f206164647265737300000000000000000000000000000000000000000000602082015250565b60006139db602a83612eb3565b91506139e68261397f565b604082019050919050565b60006020820190508181036000830152613a0a816139ce565b9050919050565b600081905092915050565b7f7b226e616d65223a202200000000000000000000000000000000000000000000600082015250565b6000613a52600a83613a11565b9150613a5d82613a1c565b600a82019050919050565b6000613a7382612d62565b613a7d8185613a11565b9350613a8d818560208601612d7e565b80840191505092915050565b7f202d2d204e465420233a20000000000000000000000000000000000000000000600082015250565b6000613acf600b83613a11565b9150613ada82613a99565b600b82019050919050565b7f222c20226465736372697074696f6e223a20225468697320697320616e204e4660008201527f542074686174206c6574732070656f706c6520706c617920696e20746865206760208201527f616d65204d657461766572736520536c6179657221222c2022696d616765223a60408201527f2022000000000000000000000000000000000000000000000000000000000000606082015250565b6000613b8d606283613a11565b9150613b9882613ae5565b606282019050919050565b7f222c202261747472696275746573223a205b207b202274726169745f7479706560008201527f223a20224865616c746820506f696e7473222c202276616c7565223a20000000602082015250565b6000613bff603d83613a11565b9150613c0a82613ba3565b603d82019050919050565b7f2c20226d61785f76616c7565223a000000000000000000000000000000000000600082015250565b6000613c4b600e83613a11565b9150613c5682613c15565b600e82019050919050565b7f7d2c207b202274726169745f74797065223a202241747461636b2044616d616760008201527f65222c202276616c7565223a2000000000000000000000000000000000000000602082015250565b6000613cbd602d83613a11565b9150613cc882613c61565b602d82019050919050565b7f7d205d7d00000000000000000000000000000000000000000000000000000000600082015250565b6000613d09600483613a11565b9150613d1482613cd3565b600482019050919050565b6000613d2a82613a45565b9150613d368289613a68565b9150613d4182613ac2565b9150613d4d8288613a68565b9150613d5882613b80565b9150613d648287613a68565b9150613d6f82613bf2565b9150613d7b8286613a68565b9150613d8682613c3e565b9150613d928285613a68565b9150613d9d82613cb0565b9150613da98284613a68565b9150613db482613cfc565b9150819050979650505050505050565b7f646174613a6170706c69636174696f6e2f6a736f6e3b6261736536342c000000600082015250565b6000613dfa601d83613a11565b9150613e0582613dc4565b601d82019050919050565b6000613e1b82613ded565b9150613e278284613a68565b915081905092915050565b7f4572726f723a20636861726163746572206d757374206861766520485020746f60008201527f2061747461636b20626f73732e00000000000000000000000000000000000000602082015250565b6000613e8e602d83612eb3565b9150613e9982613e32565b604082019050919050565b60006020820190508181036000830152613ebd81613e81565b9050919050565b7f4572726f723a20626f7373206d757374206861766520485020746f206174746160008201527f636b206368617261637465722e00000000000000000000000000000000000000602082015250565b6000613f20602d83612eb3565b9150613f2b82613ec4565b604082019050919050565b60006020820190508181036000830152613f4f81613f13565b9050919050565b7f4e487b7100000000000000000000000000000000000000000000000000000000600052601160045260246000fd5b6000613f9082612dfb565b9150613f9b83612dfb565b925082821015613fae57613fad613f56565b5b828203905092915050565b6000606082019050613fce6000830186612faa565b613fdb60208301856130c0565b613fe860408301846130c0565b949350505050565b7f4e487b7100000000000000000000000000000000000000000000000000000000600052603260045260246000fd5b600060808201905081810360008301526140398187612ec4565b9050818103602083015261404d8186612ec4565b905061405c60408301856130c0565b818103606083015261406e8184612ec4565b905095945050505050565b7f4552433732313a206f70657261746f7220717565727920666f72206e6f6e657860008201527f697374656e7420746f6b656e0000000000000000000000000000000000000000602082015250565b60006140d5602c83612eb3565b91506140e082614079565b604082019050919050565b60006020820190508181036000830152614104816140c8565b9050919050565b7f4552433732313a207472616e736665722066726f6d20696e636f72726563742060008201527f6f776e6572000000000000000000000000000000000000000000000000000000602082015250565b6000614167602583612eb3565b91506141728261410b565b604082019050919050565b600060208201905081810360008301526141968161415a565b9050919050565b7f4552433732313a207472616e7366657220746f20746865207a65726f2061646460008201527f7265737300000000000000000000000000000000000000000000000000000000602082015250565b60006141f9602483612eb3565b91506142048261419d565b604082019050919050565b60006020820190508181036000830152614228816141ec565b9050919050565b600061423a82612dfb565b915061424583612dfb565b9250827fffffffffffffffffffffffffffffffffffffffffffffffffffffffffffffffff0382111561427a57614279613f56565b5b828201905092915050565b7f4552433732313a20617070726f766520746f2063616c6c657200000000000000600082015250565b60006142bb601983612eb3565b91506142c682614285565b602082019050919050565b600060208201905081810360008301526142ea816142ae565b9050919050565b7f4552433732313a207472616e7366657220746f206e6f6e20455243373231526560008201527f63656976657220696d706c656d656e7465720000000000000000000000000000602082015250565b600061434d603283612eb3565b9150614358826142f1565b604082019050919050565b6000602082019050818103600083015261437c81614340565b9050919050565b600061438e82612dfb565b91507fffffffffffffffffffffffffffffffffffffffffffffffffffffffffffffffff8214156143c1576143c0613f56565b5b600182019050919050565b7f4e487b7100000000000000000000000000000000000000000000000000000000600052601260045260246000fd5b600061440682612dfb565b915061441183612dfb565b925082614421576144206143cc565b5b828204905092915050565b600061443782612dfb565b915061444283612dfb565b925082614452576144516143cc565b5b828206905092915050565b600061446882612dfb565b915061447383612dfb565b9250817fffffffffffffffffffffffffffffffffffffffffffffffffffffffffffffffff04831182151516156144ac576144ab613f56565b5b828202905092915050565b600060808201905081810360008301526144d18187612ec4565b905081810360208301526144e58186612ec4565b90506144f460408301856130c0565b61450160608301846130c0565b95945050505050565b600060408201905081810360008301526145248185612ec4565b905061453360208301846130c0565b9392505050565b600060608201905081810360008301526145548186612ec4565b905061456360208301856130c0565b61457060408301846130c0565b949350505050565b600081519050919050565b600082825260208201905092915050565b600061459f82614578565b6145a98185614583565b93506145b9818560208601612d7e565b6145c281612db1565b840191505092915050565b60006080820190506145e26000830187612faa565b6145ef6020830186612faa565b6145fc60408301856130c0565b818103606083015261460e8184614594565b905095945050505050565b60008151905061462881612cd3565b92915050565b60006020828403121561464457614643612c9d565b5b600061465284828501614619565b91505092915050565b7f4552433732313a206d696e7420746f20746865207a65726f2061646472657373600082015250565b6000614691602083612eb3565b915061469c8261465b565b602082019050919050565b600060208201905081810360008301526146c081614684565b9050919050565b7f4552433732313a20746f6b656e20616c7265616479206d696e74656400000000600082015250565b60006146fd601c83612eb3565b9150614708826146c7565b602082019050919050565b6000602082019050818103600083015261472c816146f0565b905091905056fe506c617965722061747461636b656420626f73732e204e657720626f73732068703a2025734142434445464748494a4b4c4d4e4f505152535455565758595a6162636465666768696a6b6c6d6e6f707172737475767778797a303132333435363738392b2f426f73732061747461636b656420706c617965722e204e657720706c617965722068703a2025730a4d696e746564204e465420772f20746f6b656e496420257320616e6420636861726163746572496e6465782025730a506c6179657220772f206368617261637465722025732061626f757420746f2061747461636b2e2048617320257320485020616e64202573204144a2646970667358221220481847c2018dc57b6f5d538a3071e5d8507cbff8493b6da80fef78e9d3f6fac564736f6c634300080a0033446f6e6520696e697469616c697a696e6720257320772f2048502025732c20696d67202573446f6e6520696e697469616c697a696e6720626f737320257320772f2048502025732c20696d67202573",
  "linkReferences": {},
  "deployedLinkReferences": {}
}